:10047A00808386898D909396999C9FA2A5A8ABAEFE
:10048A00B1B4B7BABCBFC2C5C7CACCCFD1D4D6D80B
:10049A00DADDDFE1E3E5E7E9EAECEEEFF1F2F4F5C4
:1004AA00F6F7F8F9FAFBFCFDFDFEFFFFFFFFFFFF81
:1004BA00FFFFFFFFFFFFFEFDFDFCFBFAF9F8F7F671
:1004CA00F5F4F2F1EFEEECEAE9E7E5E3E1DEDDDA95
:1004DA00D8D6D4D1CFCCCAC7C5C2BFBCBAB7B4B1BB
:1004EA00AEABA8A5A29F9C999693908D898683808E
:1004FA00807C7978726F6C696663605D5A57555172
:10050A004E4C484543403D3A383533302E2B292747
:10051A002522201E1C1A1816151311100E0D0B0A6F
:10052A000908070605040302020100000000000092
:10053A000000000000000102020304050607080982
:10054A000A0B0D0E1011131516181A1C1E2022253F
:10055A0027292B2E303335383A3D404345484C4EF7
:10056A005155575A5D606366696C6F7276797C8003
:10060600020E000102200000021700000222000074
:10061600021B00000213000A020A000A0215000A61
:10062600020C000102080001031DFF047A0310FFFB
:02063600057944
:10063900EF1F70011E144E6015E4FCFDC3ED947D9F
:0E064900EC6480948050E90DBD00010C80EE41
:010657002280
:0C067100758901758C3C758AB0D28C2212
:0300030002036095
:10036000C0E0C0F0C083C082C0D075D000C000C063
:1003700001C002C003C004C005C006C0072090062B
:10038000750E00750F01209106750E00750F022085
:100390009206750E00750F03209306750E00750FFB
:1003A00004209406750E00750F0520955FE50F6417
:1003B00001450E7017AC13AD1412010BE4FBFAF9F2
:1003C00078BF1200151201448E138F14E50F6402DA
:1003D000450E7008050BE50B7002050AE50F640376
:1003E000450E70080516E51670020515E50F640444
:1003F000450E7008050DE50D7002050CE50F64054E
:10040000450E70080509E50970020508209650E5BB
:100410000F6401450E70080514E51470020513E51C
:100420000F6402450E7008E50B150B7002150AE506
:100430000F6403450E7008E516151670021515E5D4
:100440000F6404450E7008E50D150D7002150CE5DE
:100450000F6405450E7008E509150970021508D0EE
:1004600007D006D005D004D003D002D001D000D0F0
:0A047000D0D082D083D0F0D0E0326B
:03000B000201FEF1
:1001FE00C0E0C083C082C0D075D000C001C002C0B4
:10020E0003C004C005C006C007758CFF758AF8E5EB
:10021E000F6401450E7014758001AF14AE131206F3
:10022E00397580FEAF14AE13120639E50F64024520
:10023E000E7020852180E50B2521F521E50A35205C
:10024E00F520C3E52194FEE52094004006752000BC
:10025E00752100E50F6403450E7031AB1DAA1EA972
:10026E001F1201C5F580E516251FF51FE515351E74
:10027E00F51EFAC3851183851282E51F9582EA95D4
:10028E00834009751DFF751E04751F7AE50F640402
:10029E00450E704C851880E51C451B700CE50D2530
:1002AE0018F518E50C3517F517C3E51894FEE51784
:1002BE0094004006751B00751C01E51C6401451B6E
:1002CE00700DC3E518950DF518E517950CF517D3B8
:1002DE00E5189401E51794005006751B00751C0077
:1002EE00E50F6405450E7053852380E51C451B7094
:1002FE000CE5092523F523E5083522F522C3E52370
:10030E0094FEE52294004006751B00751C01E51C49
:10031E006401451B700DC3E5239509F523E5229570
:10032E0008F522D3E5239401E5229400500D751BA8
:10033E0000751C00AF1AAE19120639D007D006D0C0
:10034E0005D004D003D002D001D0D0D082D083D03B
:02035E00E0328B
:10065800120671D28875A887AE08AF097C007D0A9A
:090668001201DE8E198F1A80FECA
:10000E000201B0E86480F8E933E83360110460F06F
:10001E00ED33EC337009E8FCE9FDEAFEEBFF220458
:10002E0060DED3EB9FEA9EE99DE8C2E78CF0C2F753
:10003E0095F0400CE8CCF8E9CDF9EACEFAEBCFFB1F
:10004E0012017B85D0F05804700320D5B3E80470FC
:10005E00075002B2D50201BA92D5EC0460F7E4CC97
:10006E00C0E0C398F8603B94186008400DD0E0FBE8
:10007E00020192E4FBFAC9FC8028E830E406E4C9E8
:10008E00FBE4CAFCE830E305E4C9CACBFCE854073C
:10009E006010F8C3E913F9EA13FAEB13FBEC13FC47
:1000AE00D8F130F52FC3E49CFCEF9BFFEE9AFEEDEA
:1000BE0099FDD0E0FBEF4E4D4C701222DB03020196
:1000CE00B7EC2CFCEF33FFEE33FEED33FDED30E7F6
:1000DE00EB020192EF2BFFEE3AFEED39FDD0E0FB85
:1000EE0050130BBB00030201BAED13FDEE13FEEF2E
:0800FE0013FFEC13FC02019258
:1001060075F020800E75F010800575F0087D007E74
:10011600007F003392D530D5031201F0EC33401046
:10012600EF33FFEE33FEED33FDEC33FCD5F0ED227D
:0E013600E5F0247EA2D513CC92E7CDCEFF22B9
:10014400EDD2E7CD33EC3392D524814006E4FFFEB3
:10015400FDFC22FCE4CFCECDCC24E0501174FF8012
:10016400EDC3CC13CCCD13CDCE13CECF13CF0470AF
:07017400F030D5DE0201F0BE
:10017B00E9D2E7C933E833F892D5EDD2E7CD33ECCA
:07018B0033FC5002B2D52243
:10019200EC30E7100FBF000C0EBE00080DBD0004CE
:1001A2000BEB6014A2D5EB13FCED92E7FD2274FF7A
:1001B200FCFDFEFF22E480F8A2D574FF13FC7D80D3
:0301C200E480EFE7
:0300000002057A7C
:0C057A00787FE4F6D8FD7581230205C1EE
:1001C500BB010689828A83E0225002E722BBFE0238
:0901D500E32289828A83E493226B
:1001DE00EF8DF0A4A8F0CF8CF0A428CE8DF0A42E35
:0201EE00FE22EF
:0E01F000C3E49FFFE49EFEE49DFDE49CFC2220
:10058600020658E493A3F8E493A34003F68001F22D
:1005960008DFF48029E493A3F85407240CC8C33376
:1005A600C4540F4420C8834004F456800146F6DF45
:1005B600E4800B0102040810204080900606E47EC9
:1005C600019360BCA3FF543F30E509541FFEE4933A
:1005D600A360010ECF54C025E060A840B8E493A301
:1005E600FAE493A3F8E493A3C8C582C8CAC583CA2C
:1005F600F0A3C8C582C8CAC583CADFE9DEE780BEE4
:0106380000C1
:00000001FF
