:1004C000808386898D909396999C9FA2A5A8ABAEB8
:1004D000B1B4B7BABCBFC2C5C7CACCCFD1D4D6D8C5
:1004E000DADDDFE1E3E5E7E9EAECEEEFF1F2F4F57E
:1004F000F6F7F8F9FAFBFCFDFDFEFFFFFFFFFFFF3B
:10050000FFFFFFFFFFFFFEFDFDFCFBFAF9F8F7F62A
:10051000F5F4F2F1EFEEECEAE9E7E5E3E1DEDDDA4E
:10052000D8D6D4D1CFCCCAC7C5C2BFBCBAB7B4B174
:10053000AEABA8A5A29F9C999693908D8986838047
:10054000807C7978726F6C696663605D5A5755512B
:100550004E4C484543403D3A383533302E2B292701
:100560002522201E1C1A1816151311100E0D0B0A29
:10057000090807060504030202010000000000004C
:10058000000000000000010202030405060708093C
:100590000A0B0D0E1011131516181A1C1E202225F9
:1005A00027292B2E303335383A3D404345484C4EB1
:1005B0005155575A5D606366696C6F7276797C80BD
:10064C00020E0001021B000002170000021D000038
:10065C0002130014020A000102150001020C000131
:10066C000208000102190005031FFF04C00310FF5C
:02067C0005BFB8
:10067F007C007D0A1201DE8E838F82E582158270E7
:10068F000215831445836015E4FAFBC3EB947DEAEE
:0D069F006480948050E50BBB00010A80EEE2
:0106AC00222B
:0C06AD00758901758C3C758AB0D28C22D6
:030003000203688D
:10036800C0E0C0F0C083C082C0D075D000C000C05B
:1003780001C002C003C004C005C006C00720B406FF
:10038800750E00750F0120B506750E00750F022059
:10039800B606750E00750F0320B706750E00750FAB
:1003A80004209006750E00750F0520915CE50F641A
:1003B80001450E700C74FB2514F51474FF3513F504
:1003C80013E50F6402450E7008050BE50B70020576
:1003D8000AE50F6403450E70080516E51670020558
:1003E80015E50F6404450E7008050DE50D7002054E
:1003F8000CE50F6405450E70100509E50970020546
:1004080008E51A151A700215193092030204A5E5B9
:100418000F6401450E700B74052514F514E43513AB
:10042800F513E50F6402450E7019AC0AAD0B120105
:100438000B7BCD7ACC79CC78BD1200151201448E95
:100448000A8F0BE50F6403450E7019AC15AD161233
:10045800010B7BCD7ACC79CC78BD12001512014402
:100468008E158F16E50F6404450E7019AC0CAD0D92
:1004780012010B7BCD7ACC79CC78BD120015120114
:10048800448E0C8F0DE50F6405450E7010E50915B7
:100498000970021508051AE51A70020519D007D067
:1004A80006D005D004D003D002D001D000D0D0D0DF
:0804B80082D083D0F0D0E032C5
:03000B000201FEF1
:1001FE00C0E0C0F0C083C082C0D075D000C000C0C7
:10020E0001C002C003C004C005C006C007758CFF44
:10021E00758AE0E50F6401450E7014758001AF1408
:10022E00AE1312067F7580FFAF14AE1312067FE574
:10023E000F6402450E7020851880E50B2518F51801
:10024E00E50A3517F517C3E51894FFE51794004036
:10025E0006751700751800E50F6403450E7031AB77
:10026E001FAA20A9211201C5F580E5162521F52129
:10027E00E5153520F520FAC3851183851282E52117
:10028E009582EA95834009751FFF7520047521C07C
:10029E00E50F6404450E704CE51E451D700CE50D12
:1002AE00251CF51CE50C351BF51BC3E51C94FFE561
:1002BE001B94004006751D00751E01E51E64014568
:1002CE001D700DC3E51C950DF51CE51B950CF51B5E
:1002DE00D3E51C9401E51B94005006751D00751E98
:1002EE0000851C80E50F6405450E7053E51E451D07
:1002FE00700CE509251CF51CE508351BF51BC3E53F
:10030E001C94FFE51B94004006751D00751E01E54B
:10031E001E6401451D700DC3E51C9509F51CE51BFA
:10032E009508F51BD3E51C9401E51B9400500D7543
:10033E001D00751E00AF1AAE1912067F851C80D0E7
:10034E0007D006D005D004D003D002D001D000D003
:0A035E00D0D082D083D0F0D0E0327E
:0C06B9001206ADD28AD28875A88780FE98
:10000E000201B0E86480F8E933E83360110460F06F
:10001E00ED33EC337009E8FCE9FDEAFEEBFF220458
:10002E0060DED3EB9FEA9EE99DE8C2E78CF0C2F753
:10003E0095F0400CE8CCF8E9CDF9EACEFAEBCFFB1F
:10004E0012017B85D0F05804700320D5B3E80470FC
:10005E00075002B2D50201BA92D5EC0460F7E4CC97
:10006E00C0E0C398F8603B94186008400DD0E0FBE8
:10007E00020192E4FBFAC9FC8028E830E406E4C9E8
:10008E00FBE4CAFCE830E305E4C9CACBFCE854073C
:10009E006010F8C3E913F9EA13FAEB13FBEC13FC47
:1000AE00D8F130F52FC3E49CFCEF9BFFEE9AFEEDEA
:1000BE0099FDD0E0FBEF4E4D4C701222DB03020196
:1000CE00B7EC2CFCEF33FFEE33FEED33FDED30E7F6
:1000DE00EB020192EF2BFFEE3AFEED39FDD0E0FB85
:1000EE0050130BBB00030201BAED13FDEE13FEEF2E
:0800FE0013FFEC13FC02019258
:1001060075F020800E75F010800575F0087D007E74
:10011600007F003392D530D5031201F0EC33401046
:10012600EF33FFEE33FEED33FDEC33FCD5F0ED227D
:0E013600E5F0247EA2D513CC92E7CDCEFF22B9
:10014400EDD2E7CD33EC3392D524814006E4FFFEB3
:10015400FDFC22FCE4CFCECDCC24E0501174FF8012
:10016400EDC3CC13CCCD13CDCE13CECF13CF0470AF
:07017400F030D5DE0201F0BE
:10017B00E9D2E7C933E833F892D5EDD2E7CD33ECCA
:07018B0033FC5002B2D52243
:10019200EC30E7100FBF000C0EBE00080DBD0004CE
:1001A2000BEB6014A2D5EB13FCED92E7FD2274FF7A
:1001B200FCFDFEFF22E480F8A2D574FF13FC7D80D3
:0301C200E480EFE7
:030000000205C036
:0C05C000787FE4F6D8FD75812102060763
:1001C500BB010689828A83E0225002E722BBFE0238
:0901D500E32289828A83E493226B
:1001DE00EF8DF0A4A8F0CF8CF0A428CE8DF0A42E35
:0201EE00FE22EF
:0E01F000C3E49FFFE49EFEE49DFDE49CFC2220
:1005CC000206B9E493A3F8E493A34003F68001F286
:1005DC0008DFF48029E493A3F85407240CC8C33330
:1005EC00C4540F4420C8834004F456800146F6DFFF
:1005FC00E4800B010204081020408090064CE47E3D
:10060C00019360BCA3FF543F30E509541FFEE493F3
:10061C00A360010ECF54C025E060A840B8E493A3BA
:10062C00FAE493A3F8E493A3C8C582C8CAC583CAE5
:10063C00F0A3C8C582C8CAC583CADFE9DEE780BE9D
:01067E00007B
:00000001FF
