:10000E00808386898D909396999C9FA2A5A8ABAE6E
:10001E00B1B4B7BABCBFC2C5C7CACCCFD1D4D6D87B
:10002E00DADDDFE1E3E5E7E9EAECEEEFF1F2F4F534
:10003E00F6F7F8F9FAFBFCFDFDFEFFFFFFFFFFFFF1
:10004E00FFFFFFFFFFFFFEFDFDFCFBFAF9F8F7F6E1
:10005E00F5F4F2F1EFEEECEAE9E7E5E3E1DEDDDA05
:10006E00D8D6D4D1CFCCCAC7C5C2BFBCBAB7B4B12B
:10007E00AEABA8A5A29F9C999693908D89868380FE
:10008E00807C7978726F6C696663605D5A575551E2
:10009E004E4C484543403D3A383533302E2B2927B8
:1000AE002522201E1C1A1816151311100E0D0B0AE0
:1000BE000908070605040302020100000000000003
:1000CE0000000000000001020203040506070809F3
:1000DE000A0B0D0E1011131516181A1C1E202225B0
:1000EE0027292B2E303335383A3D404345484C4E68
:1000FE005155575A5D606366696C6F7276797C8074
:1003160002080001020F0000020D00000211000099
:0A0326000313FF000E030AFF010D90
:100298007C007D0A1202DF8E838F82E582158270D0
:1002A8000215831445836015E4FAFBC3EB947DEAD9
:0D02B8006480948050E50BBB00010A80EECD
:0102C5002216
:0C033100758901758C4CE4F58AD28C2291
:030003000202F105
:1002F10020B40675080075090120B506750800755A
:10030100090220B60675080075090320B7067508AD
:05031100007509043233
:03000B0002010EE1
:10010E00C0E0C0F0C083C082C0D075D000C000C0B7
:10011E0001C002C003C004C005C006C007758CFF35
:10012E00758AE0E5096401450870137580017F0A40
:10013E00FE1202987580FF7F0A7E00120298E50972
:10014E0064024508701A850E80050EE50E700205D4
:10015E000DC394FFE50D94004006750D00750E005D
:10016E00E509640345087030AB13AA14A9151202F1
:10017E00C6F58074012515F515E43514F514FAC38A
:10018E00850B83850C82E5159582EA95834009756A
:10019E0013FF75140075150EE509640445087043C8
:1001AE00E512451170080510E5107002050FC3E544
:1001BE001094FFE50F94004006751100751201E5CD
:1001CE0012640145117008E51015107002150FD359
:1001DE00E5109401E50F940050067511007512009C
:1001EE00851080D007D006D005D004D003D002D021
:0E01FE0001D000D0D0D082D083D0F0D0E0323B
:0A033D00120331D28875A88380FEF8
:0300000002020CED
:0C020C00787FE4F6D8FD758115020253DE
:1002C600BB010689828A83E0225002E722BBFE0236
:0902D600E32289828A83E4932269
:1002DF00EF8DF0A4A8F0CF8CF0A428CE8DF0A42E33
:0202EF00FE22ED
:1002180002033DE493A3F8E493A34003F68001F2BC
:1002280008DFF48029E493A3F85407240CC8C333E7
:10023800C4540F4420C8834004F456800146F6DFB6
:10024800E4800B0102040810204080900316E47E2D
:10025800019360BCA3FF543F30E509541FFEE493AB
:10026800A360010ECF54C025E060A840B8E493A372
:10027800FAE493A3F8E493A3C8C582C8CAC583CA9D
:10028800F0A3C8C582C8CAC583CADFE9DEE780BE55
:0103300000CC
:00000001FF
