:10000E00808386898D909396999C9FA2A5A8ABAE6E
:10001E00B1B4B7BABCBFC2C5C7CACCCFD1D4D6D87B
:10002E00DADDDFE1E3E5E7E9EAECEEEFF1F2F4F534
:10003E00F6F7F8F9FAFBFCFDFDFEFFFFFFFFFFFFF1
:10004E00FFFFFFFFFFFFFEFDFDFCFBFAF9F8F7F6E1
:10005E00F5F4F2F1EFEEECEAE9E7E5E3E1DEDDDA05
:10006E00D8D6D4D1CFCCCAC7C5C2BFBCBAB7B4B12B
:10007E00AEABA8A5A29F9C999693908D89868380FE
:10008E00807C7978726F6C696663605D5A575551E2
:10009E004E4C484543403D3A383533302E2B2927B8
:1000AE002522201E1C1A1816151311100E0D0B0AE0
:1000BE000908070605040302020100000000000003
:1000CE0000000000000001020203040506070809F3
:1000DE000A0B0D0E1011131516181A1C1E202225B0
:1000EE0027292B2E303335383A3D404345484C4E68
:1000FE005155575A5D606366696C6F7276797C8074
:1003B90002080001020F0000020D000002110000F6
:0A03C9000313FF000E030AFF010DED
:07036700FE12036E7580FF1A
:10036E00E4FDFCC3ED9FEE6480F8EC6480985015BC
:10037E00E4FBFA0BBB00010AEB64054A70F50DBDF8
:05038E0000010C80DEFF
:010393002247
:03000600D288227B
:0C03ED00758901758C4CE4F58AD28C22D5
:03000B0002010EE1
:10010E00C0E0C083C082C0D075D000C000C001C0A6
:10011E0002C003C004C005C006C007758CFF758AF7
:10012E00E0E5096401450870087580017F641203DB
:10013E0067E50964024508701A850E80050EE50E06
:10014E007002050DC394FFE50D94004006750D0079
:10015E00750E00E509640345087030AB13AA14A9A7
:10016E00151203D4F58074012515F515E43514F533
:10017E0014FAC3850B83850C82E5159582EA958367
:10018E0040097513FF75140075150EE509640445D5
:10019E00087043E512451170080510E51070020550
:1001AE000FC3E51094FFE50F94004006751100751E
:1001BE001201E512640145117008E5101510700268
:1001CE00150FD3E5109401E50F940050067511003C
:1001DE00751200851080D007D006D005D004D0034C
:0F01EE00D002D001D000D0D0D082D083D0E03268
:1001FD001203ED12000675A883E5094508700AF58E
:10020D00807F01FE12036E80F0E5096401450870E0
:10021D000A7580017F0112036780EEE509640245CE
:10022D0008701B850E80050EE50E7002050DC3943A
:10023D00FFE50D940040E4E4F50DF50E80DDE509D4
:10024D00640345087032AB13AA14A9151203D4F533
:10025D008074012515F515E43514F514FAC3850BD5
:10026D0083850C82E5159582EA958340D17513FF40
:10027D0075140075150E80C6E50964044508600304
:10028D00020206E512451170080510E51070020511
:10029D000FC3E51094FFE50F94004006751100752E
:1002AD001201E512640145117008E5101510700278
:1002BD00150FD3E5109401E50F94005005E4F511E9
:0E02CD00F5128510807F017E0012036E80AA5C
:0300030002039461
:1003940020B40675080075090120B50675080075B6
:1003A400090220B60675080075090320B70675080A
:0503B400007509043290
:030000000202DB1E
:0C02DB00787FE4F6D8FD7581150203223F
:1003D400BB010689828A83E0225002E722BBFE0227
:0903E400E32289828A83E493225A
:1002E7000201FDE493A3F8E493A34003F68001F22F
:1002F70008DFF48029E493A3F85407240CC8C33318
:10030700C4540F4420C8834004F456800146F6DFE6
:10031700E4800B01020408102040809003B9E47EBA
:10032700019360BCA3FF543F30E509541FFEE493DB
:10033700A360010ECF54C025E060A840B8E493A3A2
:10034700FAE493A3F8E493A3C8C582C8CAC583CACD
:10035700F0A3C8C582C8CAC583CADFE9DEE780BE85
:0103D3000029
:00000001FF
