:10000E004206000001420802000A6200020000805F
:10001E00008300860089008D009000930096009961
:10002E00009C009F00A200A500A800AB00AE00B18E
:10003E0000B400B700BA00BC00BF00C200C500C7C4
:10004E0000CA00CC00CF00D100D400D600D800DA10
:10005E0000DD00DF00E100E300E500E700E900EA73
:10006E0000EC00EE00EF00F100F200F400F500F6F7
:10007E0000F700F800F900FA00FB00FC00FD00FD9F
:10008E0000FE00FF00FF00FF00FF00FF00FF00FF6B
:10009E0000FF00FF00FF00FF00FF00FE00FD00FD5F
:1000AE0000FC00FB00FA00F900F800F700F600F57E
:1000BE0000F400F200F100EF00EE00EC00EA00E9BF
:1000CE0000E700E500E300E100DE00DD00DA00D825
:1000DE0000D600D400D100CF00CC00CA00C700C5A6
:1000EE0000C200BF00BC00BA00B700B400B100AE41
:1000FE0000AB00A800A500A2009F009C00990096EE
:10010E0000930090008D008900860083008000809F
:10011E00007C007900760072006F006C006900664A
:10012E0000630060005D005A005700550051004EFC
:10013E00004C0048004500430040003D003A0038A6
:10014E00003500330030002E002B0029002700253B
:10015E0000220020001E001C001A001800160015B8
:10016E00001300110010000E000D000B000A000914
:10017E00000800070006000500040003000200024C
:10018E000001000000000000000000000000000060
:10019E00000000000000000000000001000200024C
:1001AE000003000400050006000700080009000A0D
:1001BE00000B000D000E00100011001300150016AC
:1001CE000018001A001C001E002000220025002727
:1001DE000029002B002E0030003300350038003A85
:1001EE00003D0040004300450048004C004E0051C9
:1001FE0000550057005A005D0060006300660069FC
:10020E00006C006F007200760079007C0080620046
:10021E00040000000002000400060008000A000CA2
:10022E00000E00100012001400160018001A001C18
:10023E00001E00200022002400260028002A002C88
:10024E00002E00300032003400360038003A003CF8
:10025E00003E00400042004400460048004A004C68
:10026E00004E00500052005400560058005A005CD8
:10027E00005E00600062006400660068006A006C48
:10028E00006E00700072007400760078007A007CB8
:10029E00007E00800082008400860088008A008C28
:1002AE00008E00900092009400960098009A009C98
:1002BE00009E00A000A200A400A600A800AA00AC08
:1002CE0000AE00B000B200B400B600B800BA00BC78
:1002DE0000BE00C000C200C400C600C800CA00CCE8
:1002EE0000CE00D000D200D400D600D800DA00DC58
:1002FE0000DE00E000E200E400E600E800EA00ECC8
:10030E0000EE00F000F200F400F600F800FA00FC37
:10031E0000FE00000002000400060008000A000CA7
:10032E00000E00100012001400160018001A001C17
:10033E00001E00200022002400260028002A002C87
:10034E00002E00300032003400360038003A003CF7
:10035E00003E00400042004400460048004A004C67
:10036E00004E00500052005400560058005A005CD7
:10037E00005E00600062006400660068006A006C47
:10038E00006E00700072007400760078007A007CB7
:10039E00007E00800082008400860088008A008C27
:1003AE00008E00900092009400960098009A009C97
:1003BE00009E00A000A200A400A600A800AA00AC07
:1003CE0000AE00B000B200B400B600B800BA00BC77
:1003DE0000BE00C000C200C400C600C800CA00CCE7
:1003EE0000CE00D000D200D400D600D800DA00DC57
:1003FE0000DE00E000E200E400E600E800EA00ECC7
:10040E0000EE00F000F200F400F600F800FA00FC36
:10041E0000FE620006020000000200040006000852
:10042E00000A000C000E0010001200140016001836
:10043E00001A001C001E00200022002400260028A6
:10044E00002A002C002E0030003200340036003816
:10045E00003A003C003E0040004200440046004886
:10046E00004A004C004E00500052005400560058F6
:10047E00005A005C005E0060006200640066006866
:10048E00006A006C006E00700072007400760078D6
:10049E00007A007C007E0080008200840086008846
:1004AE00008A008C008E00900092009400960098B6
:1004BE00009A009C009E00A000A200A400A600A826
:1004CE0000AA00AC00AE00B000B200B400B600B896
:1004DE0000BA00BC00BE00C000C200C400C600C806
:1004EE0000CA00CC00CE00D000D200D400D600D876
:1004FE0000DA00DC00DE00E000E200E400E600E8E6
:10050E0000EA00EC00EE00F000F200F400F600F855
:10051E0000FA00FC00FE00FE00FC00FA00F800F6F7
:10052E0000F400F200F000EE00EC00EA00E800E655
:10053E0000E400E200E000DE00DC00DA00D800D6C5
:10054E0000D400D200D000CE00CC00CA00C800C635
:10055E0000C400C200C000BE00BC00BA00B800B6A5
:10056E0000B400B200B000AE00AC00AA00A800A615
:10057E0000A400A200A0009E009C009A0098009685
:10058E00009400920090008E008C008A00880086F5
:10059E00008400820080007E007C007A0078007665
:1005AE00007400720070006E006C006A00680066D5
:1005BE00006400620060005E005C005A0058005645
:1005CE00005400520050004E004C004A00480046B5
:1005DE00004400420040003E003C003A0038003625
:1005EE00003400320030002E002C002A0028002695
:1005FE00002400220020001E001C001A0018001605
:10060E00001400120010000E000C000A0008000674
:10061E000004000200006200000000000000000064
:10062E0000000000000000000000000000000000BC
:10063E0000000000000000000000000000000000AC
:10064E00000000000000000000000000000000009C
:10065E00000000000000000000000000000000008C
:10066E00000000000000000000000000000000007C
:10067E00000000000000000000000000000000006C
:10068E00000000000000000000000000000000005C
:10069E00000000000000000000000000000000004C
:1006AE00000000000000000000000000000000003C
:1006BE00000000000000000000000000000000002C
:1006CE00000000000000000000000000000000001C
:1006DE00000000000000000000000000000000000C
:1006EE0000000000000000000000000000000000FC
:1006FE0000000000000000000000000000000000EC
:10070E0000000000000000000000000000000000DB
:10071E000000000000000000000000FF00FF00FFCE
:10072E0000FF00FF00FF00FF00FF00FF00FF00FFC3
:10073E0000FF00FF00FF00FF00FF00FF00FF00FFB3
:10074E0000FF00FF00FF00FF00FF00FF00FF00FFA3
:10075E0000FF00FF00FF00FF00FF00FF00FF00FF93
:10076E0000FF00FF00FF00FF00FF00FF00FF00FF83
:10077E0000FF00FF00FF00FF00FF00FF00FF00FF73
:10078E0000FF00FF00FF00FF00FF00FF00FF00FF63
:10079E0000FF00FF00FF00FF00FF00FF00FF00FF53
:1007AE0000FF00FF00FF00FF00FF00FF00FF00FF43
:1007BE0000FF00FF00FF00FF00FF00FF00FF00FF33
:1007CE0000FF00FF00FF00FF00FF00FF00FF00FF23
:1007DE0000FF00FF00FF00FF00FF00FF00FF00FF13
:1007EE0000FF00FF00FF00FF00FF00FF00FF00FF03
:1007FE0000FF00FF00FF00FF00FF00FF00FF00FFF3
:10080E0000FF00FF00FF00FF00FF00FF00FF00FFE2
:0A081E0000FF00FF00FF00FF00FFD5
:040B08007F037E00E9
:100B0C00D3EF9400EE940040147D6E7C00ED1D70CC
:0D0B1C00011CED4C70F7EF1F70E61E80E32A
:010B290022A9
:1008290020B01220B10F900600E4F0A304F0E49088
:100839000805F0A3F020B01C30B119120B0820B044
:100849001330B110900600E4F0A37402F0E49008AC
:1008590005F0A3F030B01C20B119120B0830B01309
:1008690020B110900600E4F0A37403F0E4900805A9
:10087900F0A3F030B01C30B119120B0830B01330AE
:10088900B110900600E4F0A37404F0E4900805F0B8
:10089900A3F020B22420B32120B41E120B0820B2E9
:1008A9001820B31520B41290000074FEF0A3747AD6
:1008B900F0900802E4F0A304F020B22520B322301E
:1008C900B41F120B0820B21920B31630B4139000CC
:1008D9000074FFF0A3743DF0900802E4F0A3740AD9
:1008E900F020B22530B32220B41F120B0820B21910
:1008F90030B31620B41390000074FFF0A3747EF097
:10090900900802E4F0A37414F020B22530B3223029
:10091900B41F120B0820B21930B31630B41390006B
:100929000074FFF0A3749FF0900802E4F0A3741E12
:10093900F030B22520B32220B41F120B0830B219AF
:1009490020B31620B41390000074FFF0A374B2F022
:10095900900802E4F0A37428F030B22520B32230C5
:10096900B41F120B0830B21920B31630B41390001B
:100979000074FFF0A374BFF0900802E4F0A374328E
:10098900F030B22530B32220B41F120B0830B2194F
:1009990030B31620B41390000074FFF0A374C9F0AB
:1009A900900802E4F0A3743CF030B22530B3223051
:1009B900B41F120B0830B21930B31630B4139000BB
:1009C9000074FFF0A374D0F0900802E4F0A3744619
:0209D900F0220A
:0F0B4100E4900805F0A3F012000012082980FBD1
:100B2A00758901900000E0FCA3E0FDECF58C8D8A4C
:070B3A00D28CD2A9D2AF2238
:03000B000209DB0C
:1009DB00C0E0C0F0C083C082C0D075D000C004C0DE
:1009EB0005C006C007900000E0FCA3E0FDECF58C11
:1009FB008D8A900804E004F0900600E0FEA3E0FF6F
:100A0B00EE705BEF24FE601C14602B14603A240321
:100A1B00704C900804E075F002A42400F582E5F018
:100A2B0034028034900804E075F002A42400F582AF
:100A3B00E5F034048022900804E075F002A4240051
:100A4B00F582E5F034008010900804E075F002A404
:100A5B002402F582E5F03406F583A3E0F590D00788
:100A6B00D006D005D004D0D0D082D083D0F0D0E047
:010A7B003248
:03000000020A7C75
:0C0A7C00787FE4F6D8FD758107020AC3FC
:100A8800020B41E493A3F8E493A34003F68001F238
:100A980008DFF48029E493A3F85407240CC8C3336F
:100AA800C4540F4420C8834004F456800146F6DF3E
:100AB800E4800B010204081020408090000EE47EC0
:100AC800019360BCA3FF543F30E509541FFEE49333
:100AD800A360010ECF54C025E060A840B8E493A3FA
:100AE800FAE493A3F8E493A3C8C582C8CAC583CA25
:100AF800F0A3C8C582C8CAC583CADFE9DEE780BEDD
:0108280000CF
:00000001FF
